:020000040800F2
:10000000FF4F0020012D0008492D0008492D000850
:10001000492D0008492D0008492D00080000000066
:10002000000000000000000000000000811900082E
:10003000492D000800000000E1190008251A0008F9
:10004000492D0008492D0008492D0008492D0008B8
:10005000492D0008492D0008492D0008492D0008A8
:10006000492D0008492D0008492D0008492D000898
:10007000492D0008492D0008550B0008492D00089E
:10008000492D0008492D0008492D0008492D000878
:10009000390B0008492D0008492D0008492D00089A
:1000A000492D0008492D0008492D0008492D000858
:1000B000492D0008492D0008492D0008492D000848
:1000C000492D0008492D0008492D0008492D000838
:1000D000492D00085D2C0008492D0008492D000815
:1000E000492D0008492D0008492D00080000000096
:1000F0000000000000000000000000000000000000
:0C01000000000000000000005FF808F1A3
:1001100010B5054C237833B9044B13B10448AFF341
:1001200000800123237010BD140200200000000095
:10013000C02D000808B5034B1BB103490348AFF3BA
:10014000008008BD0000000018020020C02D00083B
:1001500080F0004002E000BF81F0004142001FBF7C
:100160005FEA410392EA030F7FEA226C7FEA236C85
:100170006AD04FEA1262D2EB1363C1BFD21841407A
:1001800048404140B8BF5B42192B88BF704710F010
:10019000004F40F4000020F07F4018BF404211F0B3
:1001A000004F41F4000121F07F4118BF494292EA1B
:1001B000030F3FD0A2F1010241FA03FC10EB0C0047
:1001C000C3F1200301FA03F100F0004302D54942D4
:1001D00060EB4000B0F5000F13D3B0F1807F06D381
:1001E00040084FEA310102F10102FE2A51D2B1F179
:1001F000004F40EBC25008BF20F0010040EA03006E
:100200007047490040EB0000013A28BFB0F5000FED
:10021000EDD2B0FA80FCACF1080CB2EB0C0200FAA3
:100220000CF0AABF00EBC25052421843BCBFD040F2
:100230001843704792F0000F81F4000106BF80F46C
:1002400000000132013BB5E74FEA41037FEA226C2F
:1002500018BF7FEA236C21D092EA030F04D092F0FA
:10026000000F08BF0846704790EA010F1CBF00202E
:10027000704712F07F4F04D1400028BF40F000408B
:10028000704712F100723CBF00F50000704700F0AB
:10029000004343F0FE4040F4000070477FEA2262D2
:1002A00016BF08467FEA23630146420206BF5FEAA3
:1002B000412390EA010F40F4800070474FF00003A3
:1002C00004E000BF10F0004348BF40425FEA000C6A
:1002D00008BF704743F0964301464FF000001CE012
:1002E00050EA010208BF70474FF000030AE000BF68
:1002F00050EA010208BF704711F0004302D54042A6
:1003000061EB41015FEA010C02BF84460146002017
:1003100043F0B64308BFA3F18053A3F50003BCFA32
:100320008CF2083AA3EBC25310DB01FA02FC6344DF
:1003300000FA02FCC2F12002BCF1004F20FA02F2E6
:1003400043EB020008BF20F00100704702F12002D9
:1003500001FA02FCC2F1200250EA4C0021FA02F23A
:1003600043EB020008BF20EADC7070474FF0FF0C3F
:100370001CEAD0521EBF1CEAD15392EA0C0F93EA3A
:100380000C0F6FD01A4480EA010C400218BF5FEADC
:1003900041211ED04FF0006343EA501043EA51114F
:1003A000A0FB01310CF00040B1F5000F3EBF490049
:1003B00041EAD3715B0040EA010062F17F02FD2A4D
:1003C0001DD8B3F1004F40EBC25008BF20F0010030
:1003D000704790F0000F0CF0004C08BF49024CEA47
:1003E000502040EA51207F3AC2BFD2F1FF0340EAD9
:1003F000C250704740F400004FF00003013A5DDC4A
:1004000012F1190FDCBF00F000407047C2F100028A
:10041000410021FA02F1C2F1200200FA02FC5FEA77
:10042000310040F1000053EA4C0308BF20EADC70C1
:10043000704792F0000F00F0004C02BF400010F433
:10044000000F013AF9D040EA0C0093F0000F01F0E0
:10045000004C02BF490011F4000F013BF9D041EA02
:100460000C018FE70CEAD15392EA0C0F18BF93EA04
:100470000C0F0AD030F0004C18BF31F0004CD8D12E
:1004800080EA010000F00040704790F0000F17BFB5
:1004900090F0004F084691F0000F91F0004F14D0FB
:1004A00092EA0C0F01D142020FD193EA0C0F03D153
:1004B0004B0218BF084608D180EA010000F0004056
:1004C00040F0FE4040F40000704740F0FE4040F431
:1004D000400070474FF0FF0C1CEAD0521EBF1CEAD0
:1004E000D15392EA0C0F93EA0C0F69D0A2EB0302EE
:1004F00080EA010C49024FEA402037D04FF0805388
:1005000043EA111143EA10130CF000408B4238BF4C
:100510005B0042F17D024FF4000C8B4224BF5B1A5A
:1005200040EA0C00B3EB510F24BFA3EB510340EAA8
:100530005C00B3EB910F24BFA3EB910340EA9C0056
:10054000B3EBD10F24BFA3EBD10340EADC001B01C6
:1005500018BF5FEA1C1CE0D1FD2A3FF650AF8B426A
:1005600040EBC25008BF20F0010070470CF0004C77
:100570004CEA50207F32C2BFD2F1FF0340EAC250A2
:10058000704740F400004FF00003013A37E792F063
:10059000000F00F0004C02BF400010F4000F013AC1
:1005A000F9D040EA0C0093F0000F01F0004C02BFBC
:1005B000490011F4000F013BF9D041EA0C0195E725
:1005C0000CEAD15392EA0C0F08D142027FF47DAFBE
:1005D00093EA0C0F7FF470AF084676E793EA0C0FAE
:1005E00004D14B023FF44CAF08466EE730F0004CAC
:1005F00018BF31F0004CCAD130F000427FF45CAF3C
:1006000031F000437FF43CAF5FE700BF4FEA4002A8
:10061000B2F1FE4F0FD34FF09E03B3EB12620DD930
:100620004FEA002343F0004310F0004F23FA02F09A
:1006300018BF404270474FF00000704712F1610F41
:1006400001D1420205D110F0004008BF6FF0004018
:1006500070474FF000007047024A936843F48003EC
:1006600093607047002401402DE9F04FADF53D7DCA
:100670004FF4817200217BA848AC02F099FBCA229A
:100680000021204602F094FB00234FF6FF7224F86D
:1006900013200133652BFAD12146504802F028F986
:1006A00000F08EFF4FF00008DFF834B1DFF834A11E
:1006B000479041F2883147A800F054FF23881BB2CD
:1006C00001337DD00025474646464FF6FF790EE0C0
:1006D000FFF7F8FD01463846FFF740FD074624F8CE
:1006E0001590013534F815301BB201330CD034F8B5
:1006F0001500EB0700B2EBD5FFF7E4FD01463046ED
:10070000FFF72CFD0646EAE72846FFF7DBFD4FF032
:100710007C51FFF72BFE054629463846FFF7DAFEE7
:100720002946074600253046FFF7D4FE2E4B00959C
:1007300081462A46186803212B4600F087FA0128D3
:10074000064641D148465946FFF710FE5146FFF78D
:10075000C1FE01462548FFF7FFFC2549FFF7BAFE19
:100760002449FFF7FBFC0346594638461F46FFF76E
:10077000FDFD5146FFF7AEFE1B4B81461B68039300
:1007800000F01EFF039B02463146184600952B469B
:1007900000F05CFA01281CD14A46394604A802F050
:1007A00017FA04A94FF481727BA802F0F3FA124BF6
:1007B0004FF0FF3218687BA92B4601F0B7FA78E7B3
:1007C000454647464646A7E74FF400520B4B1A6191
:1007D000FEE74FF40052094B1A61FEE74C2401403A
:1007E0003333534000F07F45440200203333B33F9E
:1007F00004E78C3B0000C84140020020001001408B
:1008000000B5C7B000214FF48C72684602F0D0FAF0
:10081000AB23009302F076F901460B480B4D0C4CCC
:1008200002F0DAF8BDF914313BB16946204601F017
:1008300051FFBDF91431002BF7D14FF0FF3228687A
:1008400005A901F075FBEDE7043801403C020020EA
:100850000064004080B5C6B04FF48C720021684639
:1008600002F0A6FA0F251C4C1C4EDFF87490DFF83E
:100870007480DFF874A00DF1140C94E80F00ACE85C
:10088000070037684FEA134E2CF8023B4FF0FF3158
:1008900038468CF800E0ADF8145101F0DDFB01287A
:1008A000E9D16946504601F0C9FFBDF91431B9F8E4
:1008B000002014332DF80320BDF814C100230CF1DF
:1008C000020C4FF0FF32D8F8000005A9ADF814C1B2
:1008D00001F02CFACFE700BFD82D0008300200202D
:1008E000E82D0008400200200064004000B5C3B0BD
:1008F0004FF48172002101A802F05AFA0C4801A9B4
:1009000002F02CF80B4E0C4D0C4C01A94FF0FF32AD
:10091000306801F00DFBBDF904314FF0FF31A364E5
:10092000636C43F001036364286801F095FBECE716
:100930000438014040020020340200200000024040
:1009400000B55D4C83B002F0A7F802F07DF802F02C
:10095000DDF801F0B7FD01F005FE00F0D7F8002347
:10096000012232215548009400F04EF9544A10609B
:10097000136893B11568002400F022FE012102469D
:1009800023462846009400F061F9012805460CD062
:100990004FF400524B4B1A61FEE74FF4005203F143
:1009A000804303F588331A61FEE722464FF48171D4
:1009B000052001F085F9444E30603368002B52D099
:1009C00022464FF48171052001F07AF93F4A106008
:1009D0003368002B4FD003222146284601F070F9DE
:1009E0003B4A10601368002B4DD003222146284655
:1009F00001F066F9374A10601368002B4BD00322D0
:100A00002146284601F05CF9334A10601368002B38
:100A100049D0042603252346F0223049304801946A
:100A2000009600F0CFFB2346F022CDE900542D497B
:100A30002D4800F0C7FBCDE9005402252346F022E3
:100A40002A492B4800F0BEFB2346F02227492948BB
:100A50000194009500F0B6FB00F0A6FC4FF40052A4
:100A6000184B1A61FDE74FF4005203F1804303F580
:100A700088331A61FEE74FF4005203F1804303F517
:100A800088331A61FEE74FF4005203F1804303F507
:100A900088331A61FEE74FF4005203F1804303F5F7
:100AA00088331A61FEE74FF4005203F1804303F5E7
:100AB00088331A61FEE700BF59060008EC2D0008D4
:100AC0004402002000100140400200203C020020AF
:100AD000340200203002002038020020F82D0008E7
:100AE00069060008042E000801080008102E0008FE
:100AF00055080008ED0800084FF0BF0383F3118884
:100B0000BFF36F8FBFF34F8FFEE700BF10B400221B
:100B100020244FF480404FF48011064B83F82523A6
:100B20005C6083F80E23186083F8142310BC1960EE
:100B3000704700BF00E100E0044A05485369002106
:100B400023F002035361006801F0B6B9006400406D
:100B500030020020064B07485A68002142F48052B8
:100B60005A605A6C22F001025A64006801F0A4B97C
:100B70000000024034020020704700BFF8B50F4C5F
:100B800000F010FF25681DB1BDE8F84000F01ABF65
:100B90000B4F0C4E384600F0CDFF304600F0CAFF38
:100BA000094B2A461F60094B0C210A201E6001F0E8
:100BB00087F82060BDE8F84000F004BF7C02002008
:100BC0005002002064020020480200204C02002055
:100BD00010B582B0FFF7D2FF074B186848B1042464
:100BE000064800230190F02205490648009400F0D1
:100BF000E9FA02B010BD00BF7C0200208002002094
:100C0000342E0008150D00082DE9F04107462C2070
:100C1000884615461E4600F051FF044698B1002351
:100C200080F82830FFF7AAFF069BC4E906862760F4
:100C30002362201D00F08AFF2DB194F8283043F084
:100C4000040384F828302046BDE8F08130B5144D07
:100C500085B02C68D4B10529CDE9011203900CDCD4
:100C600000F078FD02284FF0000312D01A462868E1
:100C700001A901F05BF805B030BD9C462046002379
:100C8000624601A901F0DCF805B030BD204605B090
:100C900030BD089A286801A901F048F805B030BDB8
:100CA0007C0200202DE9F0414FF00008174E82B081
:100CB0000DE0DB68DC681F68251D284600F070FF2A
:100CC000236A2046984794F828305B070AD4336893
:100CD0001A68002AEDD10E4A11681360316002B023
:100CE000BDE8F081A3693B449F4206D229463068A3
:100CF0006360246100F03CFFE9E700233A462046A8
:100D00001946CDF80080FFF7A1FFE0E74802002078
:100D10004C0200202DE9F04F4FF0E0294FF08058B1
:100D20007A4E7B4D7B4C89B033681F68002F00F0F2
:100D30008B80DB681F6800F071FB00F041FC2A68C3
:100D400082469042C0F091808742286040F2A080A5
:100D500000222068A7EB0A0101F038FA00F066FBD8
:100D600028B9C9F8048DBFF34F8FBFF36F8F0022EE
:100D7000206805A901F0DCF80028D5D0059B002BE0
:100D8000F5DB079F7B6913B1381D00F009FF00F008
:100D900017FC2B68824698426ED3059BC5F800A0CD
:100DA000092BE4D8DFE803F0050505402A470505CF
:100DB000402A97F82820069BB96942F0010287F87B
:100DC00028205A182CBF0120002052453F617A602C
:100DD00055D8AAEB0303994220D83B6A3846984776
:100DE00097F828305907C2D50023BA6906993846C2
:100DF0000A4400931946FFF729FFB8E7069A97F8C7
:100E0000283002EB0A0143F00103514587F82830EE
:100E1000BA6179603F6136D8002AA8D03E4B391DAF
:100E2000186800F0A5FEA2E797F8283023F0010328
:100E300087F828309BE797F828309A0743D523F0A6
:100E4000010387F8283092E700F0E8FA00F0B8FBD9
:100E50002A688246824208D82F4BC5F800A01A683B
:100E60001268B2FA82F2520973E7FFF71BFFC5F866
:100E700000A000F0DBFA7AE7FFF714FF8DE7534597
:100E800001D90028A9D03068391D00F071FE6EE745
:100E900000F0CCFA3268D268D2F80CB00BF1040141
:100EA0000846039100F07CFE9BF82800039910F09F
:100EB000040F0CD120F001008BF828005846DBF815
:100EC0002030984753E7384600F032FE4FE7DBF812
:100ED0001820CBF810B0B8185045CBF8040003D94F
:100EE000306800F045FEE9E7AAEB07039A4207D80D
:100EF00000233A46584619460093FFF7A7FEDDE760
:100F0000054B186800F034FED8E700BF4802002007
:100F1000780200207C0200204C020020F8B51B4B18
:100F20001B4E05461C6830680F46043000F038FE42
:100F300048B933681749DA6A012303FA02F20B68E9
:100F400023EA02030B606B1C17D0336864195C60E2
:100F500007D3114B18683168BDE8F840043100F040
:100F600007BE0E4B18683168043100F001FE0C4BCF
:100F70001A68A24288BF1C60F8BD002FE5D0316816
:100F800008480431BDE8F84000F0E4BD80030020CB
:100F900084020020040300208C020020880200202C
:100FA000340300205803002000221A4B10B51A4CBD
:100FB0001A6023681B6B1A68B2F1A53F03D15A6807
:100FC000B2F1A53F1CD0206821683431FFF794FDB1
:100FD000124B1B68B3FA83F3DBB2114AC3F11F0350
:100FE00003EB830302EB83010A4648680832436837
:100FF00093424B6004BF5B684B60DB68236010BDAD
:101000009A68B2F1A53FDED1DB68B3F1A53FDAD132
:10101000DEE700BF840300208402002004030020D8
:101020009002002080B54FF0E02A4FF08059144D17
:10103000144F154EDFF8548014E000F0B3FCFB6849
:10104000DC68201D00F0ACFD3368013B33602B6889
:10105000013B2B6000F0B6FC206B00F069FD2046E0
:1010600000F066FD2B68002BE7D1D8F80030012B8B
:10107000F8D9CAF8049DBFF34F8FBFF36F8FF1E724
:10108000F80200206C030020F402002090020020EF
:101090002DE9F04F424B83B01D6801351D60002DD6
:1010A0005BD0404B0193019B1B689D423CD33E4E5D
:1010B00033681C68002C63D00024DFF8F080DFF870
:1010C000F0903C4F23E0504600F06AFDDBF828200A
:1010D0000BF118000AB100F063FD0122DBF82C00CF
:1010E0003B68824000EB80001A43514608EB8000C9
:1010F0003A6000F02FFDD9F800203068DBF82C10A2
:10110000D26A0368914228BF0124002B3CD0336887
:10111000DB68D3F80CB0DBF804200BF1040A95422D
:10112000D1D2019B1A6004E00024DFF88080DFF850
:101130008090D9F800302049DB6A03EB83039B00E1
:1011400058F803200B68022A28BF0124002B0CBF8B
:101150002046012003B0BDE8F08F134B174A1868F2
:1011600011681960164910600A6801320A601A682D
:10117000126872B94FF0FF330A4A0192136092E786
:10118000DFF82880DFF828904FF0FF33019A1360D2
:10119000CFE71B68034ADB6801921B68136082E794
:1011A00080030020340300208802002090020020E9
:1011B0008402002004030020840300208C0200200D
:1011C000380300202DE9F84F9600804630460D4642
:1011D000994600F073FC002800F0838007465C20ED
:1011E00000F06CFC0446002800F08880076332465B
:1011F0003846A52101F0DCFDD4F830A0002D00F028
:10120000868005F1FF3C04F133030F351CF8017FA4
:1012100003F8017F0FB1AC45F8D1002384F84330C7
:101220000A9D4FF0000B042D28BF0425271D3846CA
:10123000C4E9135BE562043E00F088FC564404F107
:101240001800C5F1050500F081FC4A464146A5613C
:1012500024616462C4F854B084F858B026F00700E2
:1012600000F078FB0B9B206003B11C6000F09AFB40
:10127000404A414E1368013313603368002B49D054
:10128000DFF8F880D8F800307BB3E36ADFF8F0903D
:1012900001253C48394602683B4F2A44026062649B
:1012A0003A6803EB830005FA03F3134309EB80006C
:1012B0003B6000F04FFC00F085FBD8F800301BB31A
:1012C0003268E36AD26A9A421ED24FF0E0234FF0AE
:1012D0008052C3F8042DBFF34F8FBFF36F8F2846A2
:1012E00001E04FF0FF30BDE8F88F3368DFF89090F1
:1012F000DA6AE36A9A4298BF3460C9E7384600F078
:1013000017FC4FF0FF30EEE72846BDE8F88F84F871
:10131000345085E734601368012B05D0E36ADFF8A9
:101320006090DFF85880B3E7DFF854904D4609F13C
:1013300064082846143500F0FDFBA845F9D1DFF814
:101340004C80134D404600F0F5FB284600F0F2FBC0
:10135000104800F0EFFB104800F0ECFB0F4800F0E5
:10136000E9FB0F4BC3F800800E4BDFF810801D60C7
:10137000E36A8DE7F4020020840200205403002079
:101380009002002000030020040300200803002036
:101390001C030020400300206C03002058030020A1
:1013A000880200208C02002030B50024144B83B04A
:1013B000019378222346134913480094FFF702FF54
:1013C000012803D0114B1B6803B030BDFFF700FCB0
:1013D0000128F7D14FF0BF0383F31188BFF36F8F5C
:1013E000BFF34F8F4FF0FF3509490A4A0A4B0D6092
:1013F00010601C6000F038FB044B1B6803B030BD6C
:10140000300300203C2E00082510000800000020BA
:10141000340300205403002080030020024A136894
:1014200001331360704700BFFC0200202DE9F04F2C
:10143000424C83B000F0B6FA2368013B2360236876
:10144000002B6BD13E4B1B68002B67D0DFF8F4B04C
:10145000DBF80030002B6DD001263B4B3B4DDFF815
:10146000F0803C4F0193DBF80C30D3F80CA00AF16C
:1014700004090AF1180000F093FB484600F090FBC5
:10148000DAF82C002A6806FA00F300EB8000134318
:10149000494608EB80002B6000F05CFB3B68DAF803
:1014A0002C20DB6A9A4224BF019B1E60DBF80030CF
:1014B000002BD8D1284B1A681268002A35D01A6838
:1014C000264BD26812681A60254E356895B10127FF
:1014D00006E0FFF7DDFD08B1019B1F60013D08D06C
:1014E0002368002BF5D03368013D03F1010333601D
:1014F000F6D13560019B1B6883B14FF0E0234FF0BC
:101500008052C3F8042DBFF34F8FBFF36F8F0124B8
:1015100000F058FA204603B0BDE8F08F002400F038
:1015200051FA204603B0BDE8F08F4FF0FF320B4B6D
:101530001A60C9E7044B0193C6E700BFFC02002014
:10154000F402002040030020840300200403002054
:101550009002002084020020880200203403002032
:101560003C030020144A10B5136801331360134B79
:1015700002681C6853182CBF01210021A24211D916
:1015800089B900240360FFF751FF48B94FF0E02309
:101590004FF08052C3F8042DBFF34F8FBFF36F8F0E
:1015A000204610BD09B99C42EBD203600021181BF4
:1015B000FFF7B4FC0124E6E7FC02002080030020D2
:1015C000014B1868704700BF80030020054B1B6863
:1015D0000BB9FFF75DBD044A0020136801331360A7
:1015E000704700BFFC0200203C030020044B1B6836
:1015F0001BB10122034B1A607047FFF7D5BC00BF37
:10160000FC0200208403002010B50C46054B19682D
:10161000183100F0ADFA2046BDE810400121FFF777
:101620007DBC00BF8402002038B514460D46084B2F
:101630001968183100F08EFA002C214608BF2846A0
:10164000BDE8384018BF4FF0FF30FFF767BC00BF60
:1016500084020020C36870B5DC6804F118052846D0
:1016600000F09EFA134B1B68FBB9261D304600F0B4
:1016700097FA0123104DE26A314610482E6802EBBA
:10168000820C9340334300EB8C002B6000F062FA35
:101690000B4BE26A1B68DB6A9A4204D90123094AB0
:1016A0001846136070BD002070BD2946064800F042
:1016B00051FAEDE7FC020020040300209002002014
:1016C000840200208403002040030020034A044BCE
:1016D00012681B68C0E90023704700BF3803002070
:1016E00080030020F8B50D46044600F05BF92B6836
:1016F000134A591C10681DD0D4E900C1114E376837
:10170000BC4508D0814206D8002301262B6000F09A
:1017100059F93046F8BD471ABB42F5D91B1A0B449C
:101720003168002612682B60C4E9001200F04AF903
:101730003046F8BD002600F045F93046F8BD00BF40
:1017400080030020380300200122014B1A607047FB
:1017500084030020054B1B6833B1054B1B68002B2D
:101760000CBF022000207047012070475403002066
:10177000FC020020F8B50446C8B1214DC36A2A68AE
:10178000D26A934214D28269002A04DB2A68D26AA0
:10179000C2F1050282611B4E626903EB830306EB13
:1017A00083039A420CD001202B68DB6AE362F8BD08
:1017B0002B68C06CDB6A98422CBF00200120F8BD6A
:1017C000271D384600F0ECF90F4A38B90123E16AC9
:1017D00003FA01F1136823EA010313602B6815680B
:1017E000DB6A3946E362012403EB830004FA03F366
:1017F00006EB80002B43136000F0ACF92046F8BDE7
:1018000084020020900200200403002058B138B563
:10181000C16A036DC26C013B91420446036500D06E
:101820001BB1002038BD00207047051D284600F080
:10183000B7F9A8B10F4AE36C2946C3F10500E3628A
:10184000A061012415680C4803EB830C04FA03F330
:1018500000EB8C002B43136000F07CF9204638BD70
:101860000121044AE06A1368814023EA01031360FE
:10187000E1E700BF040300209002002060B1C26CC9
:10188000F8B5914238BF1146C36A04468B4202D074
:10189000026D012A01D0F8BD70478269154D002AFA
:1018A00003EB83034269C16205EB8303A4BFC1F16B
:1018B000050181619A42EED1071D384600F070F9AA
:1018C000012370B1E06A0C4E8340326800EB800067
:1018D0001343394605EB80003360BDE8F84000F063
:1018E00039B9054EE06A3268834022EA0302326069
:1018F000EBE700BF9002002004030020044B1A68AD
:101900001AB119680A6D01320A651868704700BF7C
:1019100084020020002382B001934FF0BF0383F3C1
:101920001188BFF36F8FBFF34F8F019B002BFCD04B
:1019300002B0704706480068006880F3088862B605
:1019400061B6BFF34F8FBFF36F8F00DF00BF0000A2
:1019500008ED00E010B44FF08074064B21F0010157
:1019600040E9021440F80C3C40F8202C10BC4038F0
:10197000704700BF151900080000000000000000BB
:10198000074B19680868B0E8F00F80F30988BFF3C7
:101990006F8F4FF0000080F311884EF00D0E7047EE
:1019A000840200204FF0BF0383F31188BFF36F8FD1
:1019B000BFF34F8F024A136801331360704700BFB3
:1019C00004000020034A1368013B13600BB983F342
:1019D0001188704704000020000000000000000093
:1019E000EFF30980BFF36F8F0D4B1A6820E9F00FFA
:1019F00010602DE908404FF0BF0080F31188FFF719
:101A0000F5FD4FF0000080F31188BDE8084019682B
:101A10000868B0E8F00F80F30988BFF36F8F704754
:101A20008402002008B54FF0BF0383F31188BFF391
:101A30006F8FBFF34F8FFFF7C9FD28B14FF0E02341
:101A40004FF08052C3F8042D002383F3118808BDA2
:101A50004FF0E0230022072102481A619A61586181
:101A6000196170473F1901004FF0E02310B50024C1
:101A7000D3F8202D82B042F47F02C3F8202DD3F892
:101A8000202D42F07F42C3F8202DFFF7E1FF0A4BE3
:101A90001C60FFF74FFFFFF7A9FD01944FF0BF0354
:101AA00083F31188BFF36F8FBFF34F8F019B002B20
:101AB000FCD0002002B010BD04000020430710B588
:101AC000044605D020F007030833834216D91C468C
:101AD000FFF7A4FC134B1A68D2B1A4B143F6F73058
:101AE00011490A68144484420DD8A2420BD21B68E3
:101AF0000C609C18FFF79AFC204610BDFFF78EFC87
:101B0000084B1C684CB10024FFF790FC204610BD28
:101B1000064A22F007021A60DFE7044A22F00702B1
:101B20001A60F1E7880300208C3F00209403002016
:101B3000704700BF4FF0FF31002200F10803C0E9F9
:101B40000131C0E903330260704700BF0023036125
:101B5000704700BF436810B49C6802688C609C6842
:101B600001324B606160996010BC0861026070478F
:101B700030B40D686B1C10D000F108031C465B6884
:101B80001A68AA42FAD902684B60013299608C60E7
:101B90006160086130BC0260704704696368F2E705
:101BA000036910B4D0E901125C688A6051600021B9
:101BB000844208BF5A601A680161013A1A601868C5
:101BC00010BC704770B51546026C0446866B2AB986
:101BD00005684DB300200136A66370BD7DB940682D
:101BE00001F0D8F86368226C1344A26863609342E2
:101BF000F0D32368013628466360A66370BDC068D1
:101C000001F0C8F8226CE36851429B1A2268E36035
:101C1000934202D2A3680B44E360022DDAD1012E75
:101C200038BF01260020D7E78068FFF7EFFD0136B7
:101C3000A560D1E770B50546FFF7B4FE95F84530CD
:101C40005CB2002C14DD05F1240603E0631EDAB259
:101C50005CB26AB16B6A5BB13046FFF7FBFC0028EF
:101C6000F4D0FFF771FD631EDAB25CB2002AF1D145
:101C7000FF2385F84530FFF7A5FEFFF793FE95F8A3
:101C800044305CB2002C14DD05F1100603E0631E45
:101C9000DAB25CB26AB12B695BB13046FFF7DAFCAD
:101CA0000028F4D0FFF750FD631EDAB25CB2002AC0
:101CB000F1D1FF2385F84430BDE87040FFF782BEC4
:101CC000F8B5064601FB00F050300D461746FFF709
:101CD000F5FE044628B335B300F150032360C4E990
:101CE0000F65FFF75FFED4E90F3202FB03F32168B3
:101CF0009A1A0B446160A3601144FF230022E16043
:101D0000A26304F1100084F8443084F84530FFF7F2
:101D100011FF04F12400FFF70DFFFFF753FE84F8D5
:101D20004C702046F8BD0346D8E700BF2DE9F043CC
:101D3000002685B0044689461F46B046019207E05A
:101D4000FFF740FE2046FFF775FFFFF76FFB012608
:101D5000FFF728FEA56BE06B854243D3022F41D0ED
:101D6000019D002D5DD0002E38D0FFF72BFEFFF730
:101D700055FBFFF717FE94F84430FF2B08BF84F89B
:101D8000448094F84530FF2B08BF84F84580FFF766
:101D900019FE01A902A8FFF7A5FC002847D1FFF70B
:101DA00001FEA26BE36B9A42CAD1FFF70BFE0199C9
:101DB00004F11000FFF728FC2046FFF73BFFFFF778
:101DC00035FB0028C3D14FF0E0234FF08052C3F819
:101DD000042DBFF34F8FBFF36F8FB8E702A8FFF753
:101DE00075FCC2E73A4649462046FFF7EBFE636AB8
:101DF00033B958B9FFF7E6FD012005B0BDE8F0831F
:101E000004F12400FFF726FC0028F3D04FF0E02374
:101E10004FF08052C3F8042DBFF34F8FBFF36F8F85
:101E2000E8E7FFF7CFFD284605B0BDE8F083204680
:101E3000FFF700FFFFF7FAFA002005B0BDE8F083D6
:101E4000F8B5164604461A46EFF311874FF0BF0364
:101E500083F31188BFF36F8FBFF34F8F806BE36BFA
:101E6000984205D3022A03D0002087F31188F8BDD9
:101E700094F8455020466DB2A36BFFF7A3FE6B1C90
:101E800007D001356DB2012084F8455087F31188E1
:101E9000F8BD636A1BB9012087F31188F8BD04F10E
:101EA0002400FFF7D7FB0028F5D0002EF3D0012344
:101EB00018463360D9E700BF10B5034682B0EFF390
:101EC00011844FF0BF0282F31188BFF36F8FBFF30D
:101ED0004F8F826BC06B90420FD993F8450001324F
:101EE000FF289A6342B20DD0013252B2012083F82A
:101EF000452084F3118802B010BD002084F31188BE
:101F000002B010BD5A6A22B9012084F3118802B0D0
:101F100010BD03F124000191FFF79CFB0028F3D0D2
:101F200001990029F0D0012318460B60E6E700BFB5
:101F30002DE9F043044685B00F460192FFF732FDCC
:101F4000A56B002D5ED1019B002B37D002A8FFF7B7
:101F5000BDFB2E464FF0E02904F12408FFF732FDC7
:101F6000FFF75CFAFFF71EFD94F84430FF2B08BF23
:101F700084F8446094F84530FF2B08BF84F845602E
:101F8000FFF720FD01A902A8FFF7ACFBE0B9FFF7BE
:101F900009FDA36B2BBBFFF715FD40460199FFF729
:101FA00033FB2046FFF746FEFFF740FA08B3FFF782
:101FB000F9FCA56B35BB019B002BCFD1FFF702FDD0
:101FC000002005B0BDE8F0832046FFF733FEFFF7A1
:101FD0002DFAFFF7E7FCA36B002BEFD0FFF7F2FC25
:101FE000E5E7FFF7EFFC2046FFF724FEFFF71EFAB8
:101FF000DDE74FF08053C9F8043DBFF34F8FBFF3C7
:102000006F8FD4E7226C5AB1E168A36811449942FA
:10201000E16028BF2168384628BFE16000F0BAFEC1
:10202000013DA56323692BB9FFF7CCFC012005B066
:10203000BDE8F08304F11000FFF70CFB0028F3D09B
:102040004FF0E0234FF08052C3F8042DBFF34F8FC1
:10205000BFF36F8FE8E700BF2DE9F041044600278A
:1020600084B00191FFF79EFCA36B3E46B846002B5F
:1020700044D1019D002D00F08C80002E5AD0FFF736
:10208000A1FCFFF7CBF9FFF78DFC94F84430FF2B50
:1020900008BF84F8448094F84530FF2B08BF84F8CB
:1020A0004580FFF78FFC01A902A8FFF71BFB002862
:1020B00033D1FFF777FCA36B002B3FD1FFF782FCF6
:1020C0002368002B5CD0019904F12400FFF79CFAEF
:1020D0002046FFF7AFFDFFF7A9F948B94FF0E0231D
:1020E0004FF08052C3F8042DBFF34F8FBFF36F8FB3
:1020F0000126FFF757FCA36B002BBAD02268013BE7
:10210000A363002A5DD02369002B49D10127FFF783
:1021100059FC384604B0BDE8F0812046FFF78AFD3F
:10212000FFF784F9FFF73EFCA36B83B1FFF74AFC8E
:102130000126DEE702A8FFF7C9FAA0E7FFF742FC95
:102140002046FFF777FD0126FFF770F9D1E7FFF78B
:1021500039FC1FB9384604B0BDE8F081FFF722FC16
:10216000616A19B1236B1968C1F105010027A068E4
:10217000FFF784FBFFF726FC384604B0BDE8F0818A
:10218000FFF710FCA068FFF7F5FA0746FFF71AFC07
:1021900099E72F46FFF716FC384604B0BDE8F081FA
:1021A00004F11000FFF756FA0028AFD04FF0E023FB
:1021B0004FF08052C3F8042DBFF34F8FBFF36F8FE2
:1021C000A4E7FFF79BFBA0609DE700BF70B5044646
:1021D0000E461546FFF7E6FB94F84430FF2B04BF8C
:1021E000002384F8443094F84530FF2B04BF0023CB
:1021F00084F84530FFF7E6FBA36B23B12046BDE82A
:102200007040FFF717BD04F124002A463146FFF75E
:102210000BFA2046BDE87040FFF70CBDC3689B0475
:1022200001D50120704730B50D4604464B68C9689A
:10223000C2680B43296922F4B05222F00C020B430E
:102240001343C3600369AA6823F440531343036133
:1022500043696A6923F44073134385B04361684658
:1022600000F036F8164B9C4227D0164B9C4205D006
:10227000154B9C4202D0012005B030BD029B002BC3
:10228000F9D02A68002AF6D003EB8303920003EB0F
:102290008303B3FBF2F364250C490020A1FB03C2C6
:1022A000520905FB12331B013233A1FB0313120148
:1022B00002EB53139BB2A360DEE7039BDFE700BF93
:1022C0000038014000440040004800401F85EB51A9
:1022D0001A4A10B4536803F00C03082B19D0184B9A
:1022E000164A03605168174CC1F30311615C164C28
:1022F000CB4043605168C1F30221615C23FA01F1D4
:1023000081605268C2F3C222A25C10BCD340C36099
:1023100070475368DB0308D40C4A084B5B68C3F36F
:102320008343023302FB03F3DAE75268044BC2F340
:1023300040420132B3FBF2F2EFE700BF001002406F
:1023400000127A001C2E00082C2E000800093D0007
:102350000B68C3F30F2C9CFAACF2B2FA82F23CFA8F
:1023600002F37DD02DE9F04F4FF0010E0F244FF016
:1023700003084FF0011540F20117E1460EFA02F38F
:1023800013EA090F65D0072A85BFA2F1080305FAF1
:1023900003F307FA02F343F08063D0F80CC01E0A7F
:1023A00096FAA6FABAFA8AFA2CEA060C0E6906FA26
:1023B0000AF64CEA0606C6604FEA136C93FAA3FAD3
:1023C000BAFA8AFA93FAA3FBBBFA8BFB50F80C60BB
:1023D0004FEA8A0A04FA0AFA26EA0A0A4E684FEA1B
:1023E0008B0B06FA0BF64AEA060A40F80CA04E6878
:1023F00026F00806012E2CD193FAA3F6B6FA86F63B
:1024000093FAA3FBBBFA8BFBB60008FA06F62AEA9E
:10241000060A8E684FEA8B0B06FA0BF64AEA0606A6
:1024200040F80C6093FAA3FABAFA8AFA93FAA3F383
:102430004FF0040BB3FA83F34FEA8A0A0BFA0AFA55
:1024400026EA0A0ACE689B009E404AEA060640F841
:102450000C60013239FA02F390D10020BDE8F08F10
:1024600000207047042310B402216FF07B44002247
:10247000C0E90043C0E9021310BC0261704700BF0D
:102480000D4B9A69520703D49A6942F004029A618B
:102490000A4A0B4B116821F00C011160116821F000
:1024A000030111601A6942F003021A615A6B22F0AB
:1024B0001F025A63704700BF00100240000801402D
:1024C0000024014008B5254B9A69910503D49A6907
:1024D00042F400729A612248836823F0010383600A
:1024E000C36A43F48013C362836843F46023836048
:1024F000836843F480138360836823F0020383605E
:10250000436843F480734360836823F4006383600B
:10251000836843F480738360FFF7B2FFC36843F4BA
:10252000E013C360436B43F400734363836843F475
:1025300000038360836843F001038360836843F092
:102540000803836083681A07FCD48368044A43F055
:102550000403836093685B07FCD408BD001002404D
:1025600000240140564B10B4DA69940103D4DA69AF
:1025700042F00072DA61524B9A69500703D49A69AB
:1025800042F004029A614E4B9A69D10703D49A69CA
:1025900042F001029A614FF480704A4C4A4A6168E5
:1025A0004A4B41F480416160516821F0C0015160A3
:1025B000516841F080015160516841F03001516033
:1025C000516821F00C015160516841F008015160DF
:1025D000516821F00301516010611A6842F0010254
:1025E0001A605A68D207FCD51A68002022F004024B
:1025F0001A601A68364C22F008021A601968334AC9
:1026000021F010011960196841F020011960196862
:1026100021F040011960196821F0800119601968E2
:1026200041F480311960DC61D96921F00041D96140
:10263000D96941F08041D961D96921F04071D961EE
:10264000D3F8001241F00101C3F80012D3F80412CC
:1026500041F00101C3F80412D3F80C1221F001017A
:10266000C3F80C12C3F84002C3F84402D3F8401276
:1026700041F0AB51C3F84012D3F84412C3F84412EE
:10268000D3F8141221F00101C3F81412D3F8001288
:1026900021F00101C3F80012D3F81C1241F001012E
:1026A000C3F81C12596941F002015961196821F0FF
:1026B000010119605368DB07FCD410BC704700BFF0
:1026C0000010024000000140000C01400064004086
:1026D0001F001C00574B9A6852015CD5F0B50C687E
:1026E0004A688868D20042EA445242EA8002C868D6
:1026F00042EA4002C3F88021B1F8142112B2082A3C
:102700004ADD082200200A61D3F8842122F00F025A
:10271000C3F884210C69D3F884212243C3F88421AF
:10272000C3F88801C3F88C010A6952087ED0844638
:10273000414D2C8804F1040EAEF104020A44107DD0
:102740004FEACC06D3F88821B0401043C3F8880183
:1027500001EB0E02127DD3F88C01B2400243C3F8A4
:102760008C210A690CF1010CBCEB520F0EF1010E29
:10277000E2D3304AD2F8803143F00103C2F880310D
:102780000A69B1F814319B1A1BB2A1F814310B6914
:102790001C442C80F0BD7047B1F8142112B2002AFD
:1027A000F8DD0020B1F81421234D12B20A61D3F8EC
:1027B000842122F00F02C3F884210C69D3F884210C
:1027C0002243C3F88421C3F88801C3F88C010A6945
:1027D00002B302462C880EE0367DD3F8887186401D
:1027E0003E43C3F888610E690132964204F1010448
:1027F00000F108000ED9032A01EB0406ECDD0E19E6
:10280000367DA0F12007BE40D3F88C713E43C3F85B
:102810008C61E8E700220748D0F8803143F00103DB
:10282000C0F88031A1F814212A80F0BD024D2C8817
:102830009FE700BF00640040903F002030B42B4C65
:10284000D4F8B0315B0D0B60D4F8B031C3F3D103D1
:102850004B60D4F8B031C3F380038B60D4F8B0314F
:10286000C3F34003CB60D4F8B43103F00F030B6122
:102870000B694BB3002003460FE0D4F8B851B1F810
:102880001421C54012B21A440A44EDB215750A6902
:1028900001339A4200F1080016D9032BEDDDD4F87C
:1028A000BC51B1F81421A0F1200C12B21A4425FA3F
:1028B0000CFC0A445FFA8CFC82F814C00A690133EC
:1028C0009A4200F10800E8D830BC0B69B1F8140155
:1028D000064A03441BB2A1F81431D36843F0200325
:1028E000D360536943F002035361704700640040B2
:1028F000184B5A69D20703D45A6942F001025A614F
:102900006422154B18615961DA609A6822F480429A
:102910009A609A6842F480529A609A6842F480629F
:102920009A609A6842F480729A609A6842F08002D3
:102930009A609A6822F040029A609A6842F02002F7
:102940009A609A6822F010029A609A6842F0010236
:102950009A60704700100240000002401C4B5A6908
:10296000D20703D45A6942F001025A610022194B7E
:10297000D86419659A645A6C22F480425A645A6C7D
:1029800042F480525A645A6C22F440625A645A6C7F
:1029900022F440725A645A6C42F080025A645A6CB3
:1029A00022F040025A645A6C22F020025A645A6C97
:1029B00042F010025A645A6C42F008025A645A6C8F
:1029C00042F002025A645A6C22F001025A647047C3
:1029D0000010024000000240194B5A69D20703D48C
:1029E0005A6942F001025A614FF48072154B186621
:1029F0005966DA659A6D22F480429A659A6D42F4BE
:102A000080529A659A6D22F440629A659A6D22F41A
:102A100040729A659A6D42F080029A659A6D22F032
:102A200040029A659A6D42F020029A659A6D22F0F2
:102A300010029A659A6D42F001029A65704700BFD4
:102A4000001002400000024010B400244FF000507B
:102A50000F4B104A996941F004019961996941F05D
:102A600008019961996941F010019961996941F0F2
:102A70000101996153685460536810BC23F440030A
:102A80005360536843F4401353601061704700BFB4
:102A900000100240001001401849194A0B6843F029
:102AA00002030B60136843F48033136013689903C7
:102AB000FCD55168124B41F4E0115160516841F46A
:102AC00080315160116841F0807111601A68920183
:102AD000FCD559680A4A5960596841F480615960C7
:102AE00059685960596841F400415960596841F08A
:102AF0000201596053681B07FCD570470020024053
:102B000000100240004870470C01002070B50025FD
:102B10002A4B8EB09A6902A842F480429A619B695E
:102B2000CDE9025503F480430193019BCDE904559F
:102B30000695FFF797FC09220323214E21493046D1
:102B4000029102A9CDE90323CDE90555FFF700FC69
:102B500002A8FFF787FC1C4B01220293082302A95D
:102B6000304606920393FFF7F3FB4FF461420C23C8
:102B7000164C07A920460B93CDE90725CDE9095549
:102B8000CDE90C55FFF74AFB236923F490432361F9
:102B9000636923F02A036361E36843F01003E36091
:102BA000636943F040036361636943F080036361D9
:102BB000E36843F40053E3600EB070BD00100240C0
:102BC000000801400200020404000404003801402F
:102BD0002DE9F041054608469046FDF717FD0346EE
:102BE0001B4E1C4C86FB0312D917C1EBA20101EB53
:102BF0008102A3EB42033031303340466173A3734B
:102C0000FDF704FD0746144907F13003404663779A
:102C1000FDF7ACFBFDF7FAFC6FF0630303FB070362
:102C200086FB0326DA17C2EBA60606F1300106EB97
:102C30008606A3EB46033033E1774FF481722146D9
:102C4000284684F8203000F0A5F82846BDE8F08139
:102C500067666666080000200000C84230B5224B57
:102C600083B01968214C019101995968204A01915A
:102C7000D4F804310199D26D9342D4F80031C4F8EC
:102C80000421CBBF9B18C3F50073C3F5807EA3EB73
:102C9000020EBEF1000F24DD164DD4F80031294696
:102CA0000EEB030C1A46FF2BC8BFA3F58072A05C85
:102CB0000133634501F8010BF4D1013200230E49C1
:102CC000C4F8002108681A460A49A5F800E1FFF790
:102CD000B7F80021094B186803B0BDE83040FFF792
:102CE000EBB80122034DE9E7003801400C01002058
:102CF00000000240943F00203C02002038020020E7
:102D0000002103E00B4B5B58435004310A480B4B46
:102D100042189A42F6D30A4A02E0002342F8043BE2
:102D2000084B9A42F9D3FDF727FF00F00FF8FDF7A3
:102D300007FE70474C2E00080000002014020020FF
:102D40001402002098400020FEE7000070B5002625
:102D50000C4D0D4C641BA410A64209D100F030F8B4
:102D600000260A4D0A4C641BA410A64205D170BD72
:102D700055F8043B98470136EEE755F8043B984771
:102D80000136F2E7442E0008442E0008442E0008C5
:102D9000482E00080A44914200F1FF3300D17047E9
:102DA00010B511F8014B914203F8014FF9D110BD54
:102DB00003460244934200D1704703F8011BF9E730
:102DC000F8B500BFF8BC08BC9E467047F8B500BF18
:082DD000F8BC08BC9E467047E8
:102DD8004543484F2066726F6D2043414E3A2000AC
:102DE8000A0D00004144435F636F6E76657274009C
:102DF8004144435F746F5F554152540055415254EA
:102E08005F746F5F43414E0043414E5F746F5F557F
:102E180041525400000000000000000001020304B9
:102E2800060708090000000001020304546D72201F
:0C2E38005376630049444C450000000044
:042E4400350100084C
:042E4800110100086C
:102E4C0004000000AAAAAAAA54656D706572617488
:102E5C007572613A2078782043207C20566F6C7410
:102E6C006167653A20792E797920560D0A000000A9
:102E7C000000000000000000000000000000000046
:102E8C000000000000000000000000000000000036
:102E9C000000000000000000000000000000000026
:102EAC000000000000000000000000000000000016
:102EBC000000000000000000000000000000000006
:102ECC0000000000000000000000000000000000F6
:102EDC0000000000000000000000000000000000E6
:102EEC0000000000000000000000000000000000D6
:102EFC0000000000000000000000000000000000C6
:102F0C0000000000000000000000000000000000B5
:102F1C0000000000000000000000000000000000A5
:102F2C000000000000000000000000000000000095
:102F3C000000000000000000000000000000000085
:102F4C000000000000000000250000000000000050
:102F5C000000000000000000000000000000000065
:102F6C000000000000000000000000000000000055
:102F7C000000000000000000000000000000000045
:102F8C000000000000000000000000000000000035
:102F9C000000000000000000000000000000000025
:102FAC000000000000000000000000000000000015
:102FBC000000000000000000000000000000000005
:102FCC0000000000000000000000000000000000F5
:102FDC0000000000000000000000000000000000E5
:102FEC0000000000000000000000000000000000D5
:102FFC0000000000000000000000000000000000C5
:10300C0000000000000000000000000000000000B4
:10301C0000000000000000000000000000000000A4
:10302C000000000000000000000000000000000094
:10303C000000000000000000000000000000000084
:10304C000000000000000000000000000000000074
:04305C00000100006F
:0400000508002D01C1
:00000001FF
